:100000000C9434000C94C2030C9451000C94B5026F
:100010000C9451000C9441030C9451000C94510029
:100020000C9451000C9451000C9451000C9451000C
:100030000C9451000C9451000C9451000C945100FC
:100040000C946B020C9451000C9451000C945100D0
:100050000C9451000C9451000C9451000C945100DC
:100060000C9451000C94510011241FBECFEFD8E026
:10007000DEBFCDBF11E0A0E0B1E0E6E4FFE002C0EA
:1000800005900D92A831B107D9F721E0A8E1B1E0C0
:1000900001C01D92AF33B207E1F70E9441040C94F6
:1000A000A1070C94000021E030E0F90102C0EE0F3E
:1000B000FF1F8A95E2F7CF01FE2F582F509501C000
:1000C000220F6A95EAF7E22F209587E090E0642FEF
:1000D00070E0DB01082E02C0B595A7950A94E2F7FF
:1000E00038B1A0FF0BC03F2B38B938B13E2B38B91F
:1000F00038B1322338B9019760F708953523F4CF2A
:100100008230910538F0880F991F880F991F059745
:100110000197F1F708953FB7F89480913B019091D2
:100120003C01A0913D01B0913E0126B5A89B05C0C0
:100130002F3F19F00196A11DB11D3FBFBA2FA92F66
:10014000982F8827BC01CD01620F711D811D911D63
:1001500042E0660F771F881F991F4A95D1F70895CF
:100160002FB7F8946091370170913801809139016F
:1001700090913A012FBF089585B1817F85B98BB1E8
:1001800087798BB90895CF93DF93EAE0F0E0BF0160
:100190000E9438079C01CB01BF010E943807EC0187
:1001A0002A30310560F44498220F331FF901EC5FC7
:1001B000FE4F408165E083E00E945300449ACA30BC
:1001C000D10558F44198CC0FDD1FCC5FDE4F48813C
:1001D00062E080E00E945300419ADF91CF91089540
:1001E000CF93DF93C0910001D091010186E08C9FF5
:1001F00090018D9F300D1124032E000C440B550BE4
:1002000060E472E48FE090E00E944C07CA01B901FB
:100210000E94160620E030E046E153E40E94FA0412
:1002200060933201709333018093340190933501D0
:1002300080910201882329F0CE01DF91CF910C94A7
:10024000C300609120017091210180912201909161
:1002500023010E94DE05CB01F0CF4F925F926F9297
:100260007F928F929F92AF92BF92CF92DF92EF9246
:10027000FF920F931F93CF93DF930E948B006093A5
:100280002E0170932F0180933001909331012DEC5A
:100290003CEC4CE45EE360911C0170911D01809187
:1002A0001E0190911F010E94CB066093180170936C
:1002B000190180931A0190931B0110922001109252
:1002C00021011092220110922301CAE0D0E003E044
:1002D00010E080917A00806480937A0080917A00A7
:1002E00086FDFCCF6091780070917900072E000C9C
:1002F000880B990B0E94160620E030EC4FE754E47F
:100300000E946C052AE939E142E152E40E94CB06E1
:10031000209120013091210140912201509123012F
:100320000E94FB04609320017093210180932201BD
:1003300090932301F8013197F1F7219751F620E0CE
:1003400030E040E251E40E946C056B017C0120E04A
:1003500030E0A9010E94C606181624F0F7FAF094BE
:10036000F7F8F094C0922001D0922101E09222018E
:10037000F092230180901C0190901D01A0901E011D
:10038000B0901F01409018015090190160901A011F
:1003900070901B01A3019201C501B4010E94FA04EF
:1003A000A70196010E946705181604F1A3019201A6
:1003B000C501B4010E94FB04A70196010E94C60674
:1003C00087FD14C0A7019601C501B4010E94FB047A
:1003D00020E030E040E05FE30E94CB066093200124
:1003E0007093210180932201909323016091200159
:1003F00070912101809122019091230160931C0151
:1004000070931D0180931E0190931F0120910201A2
:100410002223B1F08091000190910101DF91CF91F1
:100420001F910F91FF90EF90DF90CF90BF90AF9012
:100430009F908F907F906F905F904F900C94C3002F
:100440000E94DE05CB01EACF4F925F926F927F92BE
:100450008F929F92AF92BF92CF92DF92EF92FF92D4
:100460000E942D018090320190903301A0903401C0
:10047000B09035010E948B002B013C0160912E0150
:1004800070912F0180913001909131010E941406EA
:100490006B017C01C301B2010E9414069B01AC01F7
:1004A000C501B4010E94FA049B01AC01C701B60169
:1004B0000E94FB040E94E505CB01FF90EF90DF90C6
:1004C000CF90BF90AF909F908F907F906F905F90F4
:1004D0004F900C9480001F920F920FB60F92112430
:1004E0002F933F938F939F93AF93BF938091370147
:1004F00090913801A0913901B0913A0130913601C3
:1005000023E0230F2D3758F50196A11DB11D20932F
:1005100036018093370190933801A0933901B0934D
:100520003A0180913B0190913C01A0913D01B09135
:100530003E010196A11DB11D80933B0190933C01AA
:10054000A0933D01B0933E01BF91AF919F918F91D8
:100550003F912F910F900FBE0F901F90189526E896
:10056000230F0296A11DB11DD2CF1F920F920FB67D
:100570000F9211240F931F932F933F934F935F93E9
:100580006F937F938F939F93AF93BF93EF93FF935B
:100590001C9B53C01C9B03C00E94BC00FBCF1C993A
:1005A00031C00E94B00000912A0110912B012091CE
:1005B0002C0130912D01601B710B820B930B613567
:1005C000710581059105F0F01C9912C02D9A80915A
:1005D0002901882371F180910201882331F1109261
:1005E000020180912801811103C081E08093030101
:1005F0000E94B00060932A0170932B0180932C011C
:1006000090932D01FF91EF91BF91AF919F918F91A9
:100610007F916F915F914F913F912F911F910F911A
:100620000F900FBE0F901F90189581E080930201EC
:10063000D8CF81E080932901D4CF189BE3CF189BBA
:1006400003C00E94BC00FBCF1899DCCF0E94B00011
:1006500000912A0110912B0120912C0130912D0144
:10066000601B710B820B930B613571058105910540
:1006700048F21899BDCF2D981092030110922901CC
:10068000B7CF1F920F920FB60F921124CF92DF9225
:10069000EF92FF922F933F934F935F936F937F93CC
:1006A0008F939F93AF93BF93EF93FF934C9B52C055
:1006B0004C9B03C00E94BC00FBCF4C994BC00E94D6
:1006C000B000C0902A01D0902B01E0902C01F09056
:1006D0002D016C197D098E099F0961357105810510
:1006E0009105C0F1809100019091010101978A303C
:1006F00091050CF444C09093010180930001609136
:10070000000170910101072E000C880B990B0E94CB
:1007100016066B017C012091240130912501409146
:100720002601509127010E94670581110E94F00067
:10073000C0922401D0922501E0922601F092270177
:100740000E94B00060932A0170932B0180932C01CA
:1007500090932D01FF91EF91BF91AF919F918F9158
:100760007F916F915F914F913F912F91FF90EF900B
:10077000DF90CF900F900FBE0F901F9018958AE0DA
:1007800090E0B9CF1F920F920FB60F921124CF9223
:10079000DF92EF92FF922F933F934F935F936F936C
:1007A0007F938F939F93AF93BF93EF93FF934A9B56
:1007B00003C00E94BC00FBCF4A994BC00E94B0000E
:1007C000C0902A01D0902B01E0902C01F0902D01D7
:1007D0006C197D098E099F096135710581059105A7
:1007E000C0F180910001909101010196843691053C
:1007F0000CF044C0909301018093000160910001CE
:1008000070910101072E000C880B990B0E941606AF
:100810006B017C012091240130912501409126013A
:10082000509127010E94670581110E94F000C0923B
:100830002401D0922501E0922601F09227010E9426
:10084000B00060932A0170932B0180932C01909348
:100850002D01FF91EF91BF91AF919F918F917F916A
:100860006F915F914F913F912F91FF90EF90DF90AB
:10087000CF900F900FBE0F901F90189583E690E0D9
:10088000B9CF789484B5826084BD84B5816084BD1D
:1008900085B5826085BD85B5816085BD80916E001E
:1008A000816080936E00109281008091810082604F
:1008B000809381008091810081608093810080918C
:1008C00080008160809380008091B100846080937B
:1008D000B1008091B00081608093B00080917A0077
:1008E000846080937A0080917A00826080937A009D
:1008F00080917A00816080937A0080917A0080688C
:1009000080937A001092C1005298549820982498AD
:10091000259A579A84B18E6084B98AB188668AB95B
:1009200087B18F6387B987E480937C0087E88093E1
:100930007A000E94BC000E94F00083E0809369006E
:1009400081E08DBB80916800856080936800809114
:100950006B00816180936B0080916D00806180935A
:100960006D0078945F9A8091030181112D9AC0E007
:10097000D0E0809103018823C1F186E990E00E94D4
:100980008000299A8BB188648BB90E9424025E98FA
:1009900086E990E00E9480005D9A0E9424025B98A4
:1009A00086E990E00E9480002B9A0E9424022998F8
:1009B00086E990E00E9480002A9A0E9424025D98B5
:1009C00086E990E00E9480005E9A0E9424022B98A3
:1009D00086E990E00E9480005B9A0E9424022A9897
:1009E000209739F20E940000C4CF0E94BC000E94F0
:1009F0002D01F6CF5058BB27AA270E9412050C9450
:100A00008C060E947E0638F00E94850620F039F49C
:100A10009F3F19F426F40C947B060EF4E095E7FB57
:100A20000C947506E92F0E949D0658F3BA176207C9
:100A300073078407950720F079F4A6F50C94BF0698
:100A40000EF4E0950B2EBA2FA02D0B01B9019001E9
:100A50000C01CA01A0011124FF27591B99F0593F2D
:100A600050F4503E68F11A16F040A22F232F342F75
:100A70004427585FF3CF469537952795A795F040C3
:100A80005395C9F77EF41F16BA0B620B730B840BD8
:100A9000BAF09150A1F0FF0FBB1F661F771F881F90
:100AA000C2F70EC0BA0F621F731F841F48F48795E8
:100AB00077956795B795F7959E3F08F0B0CF9395DA
:100AC000880F08F09927EE0F9795879508950E9453
:100AD000510608F481E008950E9480050C948C066C
:100AE0000E94850658F00E947E0640F029F45F3F80
:100AF00029F00C94750651110C94C0060C947B06D9
:100B00000E949D0668F39923B1F3552391F3951B39
:100B1000550BBB27AA2762177307840738F09F5F1E
:100B20005F4F220F331F441FAA1FA9F335D00E2E8B
:100B30003AF0E0E832D091505040E695001CCAF7F8
:100B40002BD0FE2F29D0660F771F881FBB1F2617BB
:100B500037074807AB07B0E809F0BB0B802DBF0192
:100B6000FF2793585F4F3AF09E3F510578F00C9461
:100B700075060C94C0065F3FE4F3983ED4F3869567
:100B800077956795B795F7959F5FC9F7880F911D82
:100B90009695879597F90895E1E0660F771F881F6E
:100BA000BB1F621773078407BA0720F0621B730B21
:100BB000840BBA0BEE1F88F7E09508950E94E505B7
:100BC0006894B1110C94C00608950E94A50688F09F
:100BD0009F5798F0B92F9927B751B0F0E1F0660F01
:100BE000771F881F991F1AF0BA95C9F714C0B13042
:100BF00091F00E94BF06B1E008950C94BF06672FE4
:100C0000782F8827B85F39F0B93FCCF38695779570
:100C10006795B395D9F73EF4909580957095619559
:100C20007F4F8F4F9F4F0895E89409C097FB3EF484
:100C300090958095709561957F4F8F4F9F4F992329
:100C4000A9F0F92F96E9BB279395F69587957795A7
:100C50006795B795F111F8CFFAF4BB0F11F460FF67
:100C60001BC06F5F7F4F8F4F9F4F16C0882311F0BF
:100C700096E911C0772321F09EE8872F762F05C0D3
:100C8000662371F096E8862F70E060E02AF09A956E
:100C9000660F771F881FDAF7880F9695879597F963
:100CA0000895990F0008550FAA0BE0E8FEEF1616FD
:100CB0001706E807F907C0F012161306E407F50750
:100CC00098F0621B730B840B950B39F40A2661F0C4
:100CD000232B242B252B21F408950A2609F4A14067
:100CE000A6958FEF811D811D089597F99F6780E874
:100CF00070E060E008959FEF80EC089500240A946E
:100D00001616170618060906089500240A941216E6
:100D10001306140605060895092E0394000C11F419
:100D2000882352F0BB0F40F4BF2B11F460FF04C0C6
:100D30006F5F7F4F8F4F9F4F089557FD9058440F1F
:100D4000551F59F05F3F71F04795880F97FB991F2A
:100D500061F09F3F79F087950895121613061406E7
:100D6000551FF2CF4695F1DF08C016161706180674
:100D7000991FF1CF86957105610508940895E8944F
:100D8000BB2766277727CB0197F908950E94510664
:100D900008F48FEF08950E94DE060C948C060E94E2
:100DA0007E0638F00E94850620F0952311F00C9401
:100DB00075060C947B0611240C94C0060E949D06B7
:100DC00070F3959FC1F3950F50E0551F629FF0019E
:100DD000729FBB27F00DB11D639FAA27F00DB11DB7
:100DE000AA1F649F6627B00DA11D661F829F222740
:100DF000B00DA11D621F739FB00DA11D621F839FC7
:100E0000A00D611D221F749F3327A00D611D231F9C
:100E1000849F600D211D822F762F6A2F11249F57EA
:100E200050409AF0F1F088234AF0EE0FFF1FBB1FED
:100E3000661F771F881F91505040A9F79E3F5105AC
:100E400080F00C9475060C94C0065F3FE4F3983E66
:100E5000D4F3869577956795B795F795E7959F5F56
:100E6000C1F7FE2B880F911D9695879597F90895E8
:100E700097FB072E16F4009407D077FD09D00E9447
:100E80006B0707FC05D03EF4909581959F4F089520
:100E9000709561957F4F0895052E97FB1EF4009481
:100EA0000E94630757FD07D00E947F0707FC03D00D
:100EB0004EF40C94630750954095309521953F4F23
:100EC0004F4F5F4F089590958095709561957F4F36
:100ED0008F4F9F4F0895AA1BBB1B51E107C0AA1F4C
:100EE000BB1FA617B70710F0A61BB70B881F991FCB
:100EF0005A95A9F780959095BC01CD010895A1E27E
:100F00001A2EAA1BBB1BFD010DC0AA1FBB1FEE1F83
:100F1000FF1FA217B307E407F50720F0A21BB30BCE
:100F2000E40BF50B661F771F881F991F1A9469F74A
:100F300060957095809590959B01AC01BD01CF01A6
:060F40000895F894FFCFB4
:100F460032000101FC006000DA00F2006600B60023
:080F5600BE00E000FE00F60001
:00000001FF
