:020000040000FA
:100000000C9434000C94D9030C9451000C94CC0241
:100010000C9451000C9458030C9451000C94510012
:100020000C9451000C9451000C9451000C9451000C
:100030000C9451000C9451000C9451000C945100FC
:100040000C9482020C9451000C9451000C945100B9
:100050000C9451000C9451000C9451000C945100DC
:100060000C9451000C94510011241FBECFEFD8E026
:10007000DEBFCDBF11E0A0E0B1E0E2E7FFE002C0EB
:1000800005900D92A831B107D9F721E0A8E1B1E0C0
:1000900001C01D92AF33B207E1F70E9458040C94DF
:1000A000B7070C94000021E030E0F90102C0EE0F28
:1000B000FF1F8A95E2F7CF01FE2F582F509501C000
:1000C000220F6A95EAF7E22F209587E090E0642FEF
:1000D00070E0DB01082E02C0B595A7950A94E2F7FF
:1000E00038B1A0FF0BC03F2B38B938B13E2B38B91F
:1000F00038B1322338B9019760F708953523F4CF2A
:100100008230910538F0880F991F880F991F059745
:100110000197F1F708953FB7F89480913B019091D2
:100120003C01A0913D01B0913E0126B5A89B05C0C0
:100130002F3F19F00196A11DB11D3FBFBA2FA92F66
:10014000982F8827BC01CD01620F711D811D911D63
:1001500042E0660F771F881F991F4A95D1F70895CF
:100160002FB7F8946091370170913801809139016F
:1001700090913A012FBF089529982A982B985B985F
:100180005E985D980895CF93DF93EAE0F0E0BF01B9
:100190000E944E079C01CB01BF010E944E07EC015B
:1001A0002A30310560F44498220F331FF901EC5FC7
:1001B000FE4F408165E083E00E945300449ACA30BC
:1001C000D10558F44198CC0FDD1FCC5FDE4F48813C
:1001D00062E080E00E945300419ADF91CF91089540
:1001E000CF93DF93C0910001D091010186E08C9FF5
:1001F00090018D9F300D1124032E000C440B550BE4
:1002000060E472E48FE090E00E946207CA01B901E5
:100210000E942C0620E030E046E153E40E941005E5
:1002200060933201709333018093340190933501D0
:1002300080910201882329F0CE01DF91CF910C94A7
:10024000C300609120017091210180912201909161
:1002500023010E94F405CB01F0CF4F925F926F9281
:100260007F928F929F92AF92BF92CF92DF92EF9246
:10027000FF920F931F93CF93DF930E948B006093A5
:100280002E0170932F0180933001909331012DEC5A
:100290003CEC4CE45EE360911C0170911D01809187
:1002A0001E0190911F010E94E10660931801709356
:1002B000190180931A0190931B0110922001109252
:1002C00021011092220110922301CAE0D0E003E044
:1002D00010E080917A00806480937A0080917A00A7
:1002E00086FDFCCF6091780070917900072E000C9C
:1002F000880B990B0E942C0620E030EC4FE754E469
:100300000E9482052AE939E142E152E40E94E106B5
:10031000209120013091210140912201509123012F
:100320000E941105609320017093210180932201A6
:1003300090932301F8013197F1F7219751F620E0CE
:1003400030E040E251E40E9482056B017C0120E034
:1003500030E0A9010E94DC06181624F0F7FAF094A8
:10036000F7F8F094C0922001D0922101E09222018E
:10037000F092230180901C0190901D01A0901E011D
:10038000B0901F01409018015090190160901A011F
:1003900070901B01A3019201C501B4010E941005D8
:1003A000A70196010E947D05181604F1A301920190
:1003B000C501B4010E941105A70196010E94DC0647
:1003C00087FD14C0A7019601C501B4010E94110563
:1003D00020E030E040E05FE30E94E106609320010E
:1003E000709321018093220190932301C0902001FA
:1003F000D0902101E0902201F0902301C0921C01D5
:10040000D0921D01E0921E01F0921F018091020125
:10041000882359F180910001909101010E94C3004D
:1004200020E030E040EC50E4C701B6010E94DC0659
:1004300087FD0AC080912801811106C05F98109243
:10044000030181E080932801DF91CF911F910F91EB
:10045000FF90EF90DF90CF90BF90AF909F908F90E4
:100460007F906F905F904F900895C701B6010E94F2
:10047000F405CB01D3CF4F925F926F927F928F9210
:100480009F92AF92BF92CF92DF92EF92FF920E9423
:100490002D018090320190903301A0903401B090F2
:1004A00035010E948B002B013C0160912E0170915F
:1004B0002F0180913001909131010E942A066B0139
:1004C0007C01C301B2010E942A069B01AC01C50157
:1004D000B4010E9410059B01AC01C701B6010E9446
:1004E00011050E94FB05CB01FF90EF90DF90CF90AC
:1004F000BF90AF909F908F907F906F905F904F9044
:100500000C9480001F920F920FB60F9211242F931C
:100510003F938F939F93AF93BF93809137019091B7
:100520003801A0913901B0913A013091360123E0B0
:10053000230F2D3758F50196A11DB11D20933601CB
:100540008093370190933801A0933901B0933A0119
:1005500080913B0190913C01A0913D01B0913E0101
:100560000196A11DB11D80933B0190933C01A09386
:100570003D01B0933E01BF91AF919F918F913F910B
:100580002F910F900FBE0F901F90189526E8230F04
:100590000296A11DB11DD2CF1F920F920FB60F92DE
:1005A00011240F931F932F933F934F935F936F9358
:1005B0007F938F939F93AF93BF93EF93FF931C9B76
:1005C00053C01C9B03C00E94BC00FBCF1C9931C0D0
:1005D0000E94B00000912A0110912B0120912C0162
:1005E00030912D01601B710B820B930B61357105EE
:1005F00081059105F0F01C9912C02D9A8091290176
:10060000882371F180910201882331F11092020157
:1006100080912801811103C081E0809303010E9431
:10062000B00060932A0170932B0180932C0190936A
:100630002D01FF91EF91BF91AF919F918F917F918C
:100640006F915F914F913F912F911F910F910F905B
:100650000FBE0F901F90189581E080930201D8CFB4
:1006600081E080932901D4CF189BE3CF189B03C06E
:100670000E94BC00FBCF1899DCCF0E94B000009113
:100680002A0110912B0120912C0130912D01601B2A
:10069000710B820B930B613571058105910548F251
:1006A0001899BDCF2D981092030110922901B7CF50
:1006B0001F920F920FB60F921124CF92DF92EF92FA
:1006C000FF922F933F934F935F936F937F938F93FB
:1006D0009F93AF93BF93EF93FF934C9B52C04C9B60
:1006E00003C00E94BC00FBCF4C994BC00E94B000DD
:1006F000C0902A01D0902B01E0902C01F0902D01A8
:100700006C197D098E099F09613571058105910577
:10071000C0F1809100019091010101978A3091050B
:100720000CF444C09093010180930001609100019A
:1007300070910101072E000C880B990B0E942C066A
:100740006B017C012091240130912501409126010B
:10075000509127010E947D0581110E94F000C092F6
:100760002401D0922501E0922601F09227010E94F7
:10077000B00060932A0170932B0180932C01909319
:100780002D01FF91EF91BF91AF919F918F917F913B
:100790006F915F914F913F912F91FF90EF90DF907C
:1007A000CF900F900FBE0F901F9018958AE090E0A9
:1007B000B9CF1F920F920FB60F921124CF92DF92F2
:1007C000EF92FF922F933F934F935F936F937F939B
:1007D0008F939F93AF93BF93EF93FF934A9B03C075
:1007E0000E94BC00FBCF4A994BC00E94B000C09051
:1007F0002A01D0902B01E0902C01F0902D016C1972
:100800007D098E099F096135710581059105C0F14A
:1008100080910001909101010196843691050CF0C0
:1008200044C0909301018093000160910001709198
:100830000101072E000C880B990B0E942C066B01FE
:100840007C01209124013091250140912601509195
:1008500027010E947D0581110E94F000C0922401B1
:10086000D0922501E0922601F09227010E94B0006B
:1008700060932A0170932B0180932C0190932D019A
:10088000FF91EF91BF91AF919F918F917F916F9168
:100890005F914F913F912F91FF90EF90DF90CF901C
:1008A0000F900FBE0F901F90189583E690E0B9CF80
:1008B000789484B5826084BD84B5816084BD85B53B
:1008C000826085BD85B5816085BD80916E00816047
:1008D00080936E00109281008091810082608093ED
:1008E00081008091810081608093810080918000EF
:1008F0008160809380008091B10084608093B1001A
:100900008091B00081608093B00080917A00846013
:1009100080937A0080917A00826080937A0080913F
:100920007A00816080937A0080917A008068809359
:100930007A001092C1005298549820982498259AD1
:10094000579A219A229A239A539A559A569A87B17E
:100950008F6387B987E480937C0087E880937A006F
:100960000E94BC000E94F00083E08093690081E057
:100970008DBB8091680085608093680080916B00DA
:10098000816180936B0080916D00806180936D0028
:1009900078945F9A8091030181112D9AC0E0D0E094
:1009A000809103018823B9F186E990E00E948000DC
:1009B000299A5E9A5B9A0E943B025E9886E990E0D3
:1009C0000E9480005D9A0E943B025B9886E990E05D
:1009D0000E9480002B9A0E943B02299886E990E0B1
:1009E0000E9480002A9A0E943B025D9886E990E06E
:1009F0000E9480005E9A0E943B022B9886E990E05C
:100A00000E9480005B9A0E943B022A98209741F244
:100A10000E940000C5CF0E94BC000E942D01F6CFAD
:100A20005058BB27AA270E9428050C94A2060E94B2
:100A3000940638F00E949B0620F039F49F3F19F489
:100A400026F40C9491060EF4E095E7FB0C948B06CB
:100A5000E92F0E94B30658F3BA1762077307840799
:100A6000950720F079F4A6F50C94D5060EF4E095E0
:100A70000B2EBA2FA02D0B01B90190010C01CA0158
:100A8000A0011124FF27591B99F0593F50F4503E03
:100A900068F11A16F040A22F232F342F4427585FF5
:100AA000F3CF469537952795A795F0405395C9F70D
:100AB0007EF41F16BA0B620B730B840BBAF09150C5
:100AC000A1F0FF0FBB1F661F771F881FC2F70EC064
:100AD000BA0F621F731F841F48F487957795679537
:100AE000B795F7959E3F08F0B0CF9395880F08F023
:100AF0009927EE0F9795879508950E94670608F449
:100B000081E008950E9496050C94A2060E949B061F
:100B100058F00E94940640F029F45F3F29F00C94AD
:100B20008B0651110C94D6060C9491060E94B306C4
:100B300068F39923B1F3552391F3951B550BBB270C
:100B4000AA2762177307840738F09F5F5F4F220F51
:100B5000331F441FAA1FA9F335D00E2E3AF0E0E848
:100B600032D091505040E695001CCAF72BD0FE2F92
:100B700029D0660F771F881FBB1F26173707480726
:100B8000AB07B0E809F0BB0B802DBF01FF279358DE
:100B90005F4F3AF09E3F510578F00C948B060C9411
:100BA000D6065F3FE4F3983ED4F386957795679534
:100BB000B795F7959F5FC9F7880F911D9695879513
:100BC00097F90895E1E0660F771F881FBB1F621732
:100BD00073078407BA0720F0621B730B840BBA0BF0
:100BE000EE1F88F7E09508950E94FB056894B11107
:100BF0000C94D60608950E94BB0688F09F5798F083
:100C0000B92F9927B751B0F0E1F0660F771F881F11
:100C1000991F1AF0BA95C9F714C0B13091F00E942B
:100C2000D506B1E008950C94D506672F782F882754
:100C3000B85F39F0B93FCCF3869577956795B39552
:100C4000D9F73EF490958095709561957F4F8F4FC1
:100C50009F4F0895E89409C097FB3EF490958095C6
:100C6000709561957F4F8F4F9F4F9923A9F0F92F72
:100C700096E9BB279395F695879577956795B795F0
:100C8000F111F8CFFAF4BB0F11F460FF1BC06F5FD6
:100C90007F4F8F4F9F4F16C0882311F096E911C0E8
:100CA000772321F09EE8872F762F05C0662371F009
:100CB00096E8862F70E060E02AF09A95660F771F1D
:100CC000881FDAF7880F9695879597F90895990FF9
:100CD0000008550FAA0BE0E8FEEF16161706E80706
:100CE000F907C0F012161306E407F50798F0621B27
:100CF000730B840B950B39F40A2661F0232B242BFC
:100D0000252B21F408950A2609F4A140A6958FEF1A
:100D1000811D811D089597F99F6780E870E060E06C
:100D200008959FEF80EC089500240A941616170684
:100D300018060906089500240A94121613061406CC
:100D400005060895092E0394000C11F4882352F02F
:100D5000BB0F40F4BF2B11F460FF04C06F5F7F4FE7
:100D60008F4F9F4F089557FD9058440F551F59F0CE
:100D70005F3F71F04795880F97FB991F61F09F3F88
:100D800079F087950895121613061406551FF2CFB1
:100D90004695F1DF08C0161617061806991FF1CF01
:100DA00086957105610508940895E894BB27662728
:100DB0007727CB0197F908950E94670608F48FEF13
:100DC00008950E94F4060C94A2060E94940638F03E
:100DD0000E949B0620F0952311F00C948B060C9436
:100DE000910611240C94D6060E94B30670F3959FC9
:100DF000C1F3950F50E0551F629FF001729FBB2712
:100E0000F00DB11D639FAA27F00DB11DAA1F649FAD
:100E10006627B00DA11D661F829F2227B00DA11D60
:100E2000621F739FB00DA11D621F839FA00D611DE6
:100E3000221F749F3327A00D611D231F849F600D07
:100E4000211D822F762F6A2F11249F5750409AF030
:100E5000F1F088234AF0EE0FFF1FBB1F661F771FBC
:100E6000881F91505040A9F79E3F510580F00C9487
:100E70008B060C94D6065F3FE4F3983ED4F3869538
:100E800077956795B795F795E7959F5FC1F7FE2B27
:100E9000880F911D9695879597F9089597FB072ED2
:100EA00016F4009407D077FD09D00E94810707FC53
:100EB00005D03EF4909581959F4F0895709561956A
:100EC0007F4F0895052E97FB1EF400940E9479072A
:100ED00057FD07D00E94950707FC03D04EF40C94F1
:100EE000790750954095309521953F4F4F4F5F4F73
:100EF000089590958095709561957F4F8F4F9F4F86
:100F00000895AA1BBB1B51E107C0AA1FBB1FA61750
:100F1000B70710F0A61BB70B881F991F5A95A9F7A2
:100F200080959095BC01CD010895A1E21A2EAA1BCF
:100F3000BB1BFD010DC0AA1FBB1FEE1FFF1FA21789
:100F4000B307E407F50720F0A21BB30BE40BF50B86
:100F5000661F771F881F991F1A9469F7609570950F
:100F6000809590959B01AC01BD01CF010895F89447
:100F7000FFCF32000101FC006000DA00F2006600E1
:0A0F8000B600BE00E000FE00F6001F
:107800000C94343C0C94513C0C94513C0C94513CE1
:107810000C94513C0C94513C0C94513C0C94513CB4
:107820000C94513C0C94513C0C94513C0C94513CA4
:107830000C94513C0C94513C0C94513C0C94513C94
:107840000C94513C0C94513C0C94513C0C94513C84
:107850000C94513C0C94513C0C94513C0C94513C74
:107860000C94513C0C94513C11241FBECFEFD8E036
:10787000DEBFCDBF11E0A0E0B1E0ECE9FFE702C060
:1078800005900D92A230B107D9F712E0A2E0B1E065
:1078900001C01D92AD30B107E1F70E942D3D0C945F
:1078A000CC3F0C94003C982F959595959595959582
:1078B000905D8F708A307CF0282F295A8091C0000B
:1078C00085FFFCCF9093C6008091C00085FFFCCF60
:1078D0002093C6000895282F205DF0CF982F809127
:1078E000C00085FFFCCF9093C6000895EF92FF92F1
:1078F0000F931F93EE24FF2487018091C00087FD22
:1079000017C00894E11CF11C011D111D81E4E8164B
:1079100082E4F8068FE0080780E0180770F3E09132
:107920000401F091050109958091C00087FFE9CF1E
:107930008091C6001F910F91FF90EF9008950E94D3
:10794000763C982F8091C00085FFFCCF9093C600B5
:1079500091362CF490330CF09053892F089597555D
:10796000892F08951F930E949F3C182F0E949F3CCF
:107970001295107F810F1F9108951F93182F882350
:1079800021F00E94763C1150E1F71F9108951F935A
:10799000182F0E94763C803249F0809103018F5F5E
:1079A000809303018530C1F01F9108958091C0003C
:1079B00085FFFCCF84E18093C6008091C00085FFE5
:1079C000FCCF1093C6008091C00085FFFCCF80E102
:1079D0008093C6001F910895E0910401F091050184
:1079E00009951F9108950E94763C803241F0809164
:1079F00003018F5F80930301853081F008958091AA
:107A0000C00085FFFCCF84E18093C6008091C00058
:107A100085FFFCCF80E18093C6000895E0910401CA
:107A2000F09105010995089540E951E08823A1F0FE
:107A30002D9A28EE33E0FA013197F1F721503040CA
:107A4000D1F72D9828EE33E0FA013197F1F7215064
:107A50003040D1F7815061F708953F924F925F9285
:107A60006F927F928F929F92AF92BF92CF92DF924E
:107A7000EF92FF920F931F93CF93DF93000080E16B
:107A80008093C4001092C50088E18093C10086E015
:107A90008093C2005098589A259A81E00E94143D24
:107AA00024E1F22E9EE1E92E85E9D82E0FE0C02ECA
:107AB00010E1B12EAA24A394B1E49B2EA6E58A2E50
:107AC000F2E57F2EE0E26E2E79E4572E63E5462E36
:107AD00050E5352E0E94763C8033B1F18133B9F107
:107AE000803409F46FC0813409F476C0823409F41B
:107AF00085C0853409F488C0803531F1823521F1A3
:107B0000813511F1853509F485C0863509F48DC0BC
:107B1000843609F496C0843709F403C1853709F423
:107B200072C1863709F466C0809103018F5F80932C
:107B30000301853079F6E0910401F0910501099582
:107B40000E94763C803351F60E94F33CC3CF0E94E2
:107B5000763C803249F78091C00085FFFCCFF092DF
:107B6000C6008091C00085FFFCCF9092C600809136
:107B7000C00085FFFCCF8092C6008091C00085FFC9
:107B8000FCCF7092C6008091C00085FFFCCF609250
:107B9000C6008091C00085FFFCCF5092C600809146
:107BA000C00085FFFCCF4092C6008091C00085FFD9
:107BB000FCCF3092C6008091C00085FFFCCFB09210
:107BC000C60088CF0E94763C863808F4BDCF0E945C
:107BD000763C0E94F33C7ECF0E94763C803809F4CC
:107BE0009CC0813809F40BC1823809F43CC1883942
:107BF00009F48FC080E00E94C73C6CCF84E10E94F2
:107C0000BD3C0E94F33C66CF85E00E94BD3C0E94D3
:107C1000F33C60CF0E94763C809306010E94763C44
:107C2000809307010E94F33C55CF0E94763C80333D
:107C300009F41DC183E00E94BD3C80E00E94C73C66
:107C400049CF0E94763C809309020E94763C809343
:107C5000080280910C028E7F80930C020E94763C79
:107C6000853409F415C18091080290910902892B8D
:107C700089F000E010E00E94763CF801E85FFE4FDA
:107C800080830F5F1F4F80910802909109020817AF
:107C9000190788F30E94763C803209F045CF809125
:107CA0000C0280FF01C16091060170910701660F0F
:107CB000771F7093070160930601A0910802B091AD
:107CC00009021097C9F0E8E0F1E09B01AD014E0F09
:107CD0005F1FF999FECF32BD21BD819180BDFA9A17
:107CE000F99A2F5F3F4FE417F50799F76A0F7B1F4B
:107CF00070930701609306018091C00085FFFCCF5F
:107D0000F092C6008091C00085FFFCCFB092C60003
:107D1000E1CE83E00E94C73CDDCE82E00E94C73CFA
:107D2000D9CE0E94763C809309020E94763C8093D3
:107D300008028091060190910701880F991F909386
:107D40000701809306010E94763C853409F4A6C0A1
:107D500080910C028E7F80930C020E94763C8032D0
:107D600009F0B8CE8091C00085FFFCCFF092C6002C
:107D7000609108027091090261157105B9F140E046
:107D800050E080910C02A82FA170B82FB27011C0E2
:107D9000BB2309F45CC0E0910601F0910701319624
:107DA000F0930701E09306014F5F5F4F46175707B7
:107DB000E8F4AA2369F3F999FECF209106013091E6
:107DC000070132BD21BDF89A90B58091C00085FFB2
:107DD000FCCF9093C6002F5F3F4F30930701209355
:107DE00006014F5F5F4F4617570718F38091C00099
:107DF00085FDE5CE8091C00085FFF8CFE0CE81E023
:107E00000E94C73C67CE0E94763C803209F08CCE3F
:107E10008091C00085FFFCCFF092C6008091C00029
:107E200085FFFCCFE092C6008091C00085FFFCCFAB
:107E3000D092C6008091C00085FFFCCFC092C600E2
:107E40008091C00085FFFCCFB092C60043CEE09188
:107E50000601F091070194918091C00085FFFCCF4D
:107E60009093C6009CCF80E10E94C73C33CE0E9415
:107E7000763C0E94763C182F0E94763C112309F430
:107E800083C0113009F484C08FE00E94C73C22CE29
:107E900080910C02816080930C02E5CE80910C02EF
:107EA000816080930C0259CF809107018823880F4D
:107EB000880B8A2180930B02809106019091070123
:107EC000880F991F90930701809306018091080203
:107ED00080FF09C080910802909109020196909359
:107EE000090280930802F894F999FECF1127E091D6
:107EF0000601F0910701C8E0D1E08091080290915D
:107F00000902103091F40091570001700130D9F34B
:107F100003E000935700E89500915700017001308D
:107F2000D9F301E100935700E89509901990009169
:107F3000570001700130D9F301E000935700E89534
:107F40001395103498F011270091570001700130FB
:107F5000D9F305E000935700E895009157000170B0
:107F60000130D9F301E100935700E895329602976A
:107F700009F0C7CF103011F00296E5CF112480919F
:107F8000C00085FFB9CEBCCE8EE10E94C73CA2CD19
:0E7F900085E90E94C73C9ECDF894FFCF80008B
:00000001FF
