:020000040000FA
:100000000C9434000C940E020C9451000C943001AA
:100010000C9451000C947A010C9451000C945100F2
:100020000C9451000C9451000C9451000C9451000C
:100030000C9451000C9451000C9451000C945100FC
:100040000C94E6000C9451000C9451000C94510057
:100050000C9451000C9451000C9451000C945100DC
:100060000C9451000C94510011241FBECFEFD8E026
:10007000DEBFCDBF11E0A0E0B1E0E8EAFAE002C0E7
:1000800005900D92A831B107D9F721E0A8E1B1E0C0
:1000900001C01D92AD32B207E1F70E94A0020C949C
:1000A00052050C94000021E030E0F90102C0EE0F8F
:1000B000FF1F8A95E2F7CF01FE2F582F509501C000
:1000C000220F6A95EAF7E22F209587E090E0642FEF
:1000D00070E0DB01082E02C0B595A7950A94E2F7FF
:1000E00038B1A0FF0BC03F2B38B938B13E2B38B91F
:1000F00038B1322338B9019760F708953523F4CF2A
:100100008230910538F0880F991F880F991F059745
:100110000197F1F7089529982A982B985B985E9893
:100120005D980895CF93DF93C0910001D0910101B4
:1001300086E08C9F90018D9F300D1124032E000CC2
:10014000440B550B60E472E48FE090E00E94FD04E4
:10015000CA01B9010E94390420E030E040E751E4CF
:100160000E9496036093290170932A0180932B01CA
:1001700090932C01EAE0F0E0CE01BF010E94E90477
:100180009C01CB01BF010E94E904EC012A3031053A
:1001900060F44498220F331FF901ED5FFE4F408158
:1001A00065E083E00E945300449ACA30D10558F4B8
:1001B0004198CC0FDD1FCD5FDE4F488162E080E0CB
:1001C0000E945300419ADF91CF9108951F920F92A0
:1001D0000FB60F9211242F933F938F939F93AF935A
:1001E000BF938091250190912601A0912701B091A4
:1001F00028013091240123E0230F2D3758F5019673
:10020000A11DB11D20932401809325019093260107
:10021000A0932701B09328018091200190912101A2
:10022000A0912201B09123010196A11DB11D8093DF
:10023000200190932101A0932201B0932301BF914B
:10024000AF919F918F913F912F910F900FBE0F9083
:100250001F90189526E8230F0296A11DB11DD2CF3D
:100260001F920F920FB60F9211242F933F934F932B
:100270005F936F937F938F939F93AF93BF93EF930E
:10028000FF931C9B23C01C9B03C00E948B00FBCFD1
:100290008FE391E00197F1F700C000001C9905C0C1
:1002A0002D9A5F9881E080930201FF91EF91BF91B9
:1002B000AF919F918F917F916F915F914F913F91FE
:1002C0002F910F900FBE0F901F901895189BEDCF98
:1002D000189B03C00E948B00FBCF8FE391E0019736
:1002E000F1F700C000001899E0CF2D985F9A1092A6
:1002F0000201DBCF1F920F920FB60F921124CF9203
:10030000DF92EF92FF922F933F934F935F936F9300
:100310007F938F939F93AF93BF93EF93FF934C9BE8
:1003200065C04C9B03C00E948B00FBCF4C995EC004
:100330002FB7F8948091250190912601A091270173
:10034000B09128012FBF40911C0150911D01609177
:100350001E0170911F01841B950BA60BB70B8135F5
:100360009105A105B10508F441C08091000190916B
:10037000010101978A3091050CF44DC09093010161
:10038000809300016091000170910101072E000C23
:10039000880B990B0E9439046B017C012091180194
:1003A0003091190140911A0150911B010E940304E0
:1003B00081110E949200C0921801D0921901E0921E
:1003C0001A01F0921B012FB7F894809125019091AA
:1003D0002601A0912701B09128012FBF80931C0115
:1003E00090931D01A0931E01B0931F01FF91EF9107
:1003F000BF91AF919F918F917F916F915F914F913D
:100400003F912F91FF90EF90DF90CF900F900FBE14
:100410000F901F9018958AE090E0B0CF1F920F9236
:100420000FB60F921124CF92DF92EF92FF922F938B
:100430003F934F935F936F937F938F939F93AF936C
:10044000BF93EF93FF934A9B03C00E948B00FBCFA7
:100450004A995EC02FB7F8948091250190912601AA
:10046000A0912701B09128012FBF40911C0150910C
:100470001D0160911E0170911F01841B950BA60B3D
:10048000B70B81359105A105B10508F441C08091F4
:100490000001909101010196843691050CF04DC048
:1004A000909301018093000160910001709101011E
:1004B000072E000C880B990B0E9439046B017C01FC
:1004C000209118013091190140911A0150911B019E
:1004D0000E94030481110E949200C0921801D092E0
:1004E0001901E0921A01F0921B012FB7F894809144
:1004F000250190912601A0912701B09128012FBFDD
:1005000080931C0190931D01A0931E01B0931F01C5
:10051000FF91EF91BF91AF919F918F917F916F91DB
:100520005F914F913F912F91FF90EF90DF90CF908F
:100530000F900FBE0F901F90189583E690E0B0CFFC
:10054000789484B5826084BD84B5816084BD85B5AE
:10055000826085BD85B5816085BD80916E008160BA
:1005600080936E0010928100809181008260809360
:100570008100809181008160809381008091800062
:100580008160809380008091B10084608093B1008D
:100590008091B00081608093B00080917A00846087
:1005A00080937A0080917A00826080937A008091B3
:1005B0007A00816080937A0080917A0080688093CD
:1005C0007A001092C1005298549820982498259A45
:1005D000579A219A229A239A539A559A569A87B1F2
:1005E0008F6387B90E948B000E94920083E0809302
:1005F000690081E08DBB8091680085608093680010
:1006000080916B00816180936B0080916D008061AF
:1006100080936D00789480910201811182C05F9A6D
:10062000C0E0D0E080910201882309F47CC08FE013
:1006300090E00E948000299A5E9A5B9A609129015D
:1006400070912A0180912B0190912C010E94080445
:10065000CB010E9480005E988FE090E00E948000B5
:100660005D9A6091290170912A0180912B019091EE
:100670002C010E940804CB010E9480005B988FE04F
:1006800090E00E9480002B9A6091290170912A01CC
:1006900080912B0190912C010E940804CB010E94B3
:1006A000800029988FE090E00E9480002A9A609153
:1006B000290170912A0180912B0190912C010E94B7
:1006C0000804CB010E9480005D988FE090E00E94BA
:1006D00080005E9A6091290170912A0180912B011E
:1006E00090912C010E940804CB010E9480002B985D
:1006F0008FE090E00E9480005B9A609129017091E8
:100700002A0180912B0190912C010E940804CB01B9
:100710000E9480002A98209709F484CF0E9400004C
:1007200081CF2D9A7DCF0E948B00F5CF5058BB27EB
:10073000AA270E94AE030C94AF040E94A10438F0D3
:100740000E94A80420F039F49F3F19F426F40C9479
:100750009E040EF4E095E7FB0C949804E92F0E94A8
:10076000C00458F3BA17620773078407950720F08F
:1007700079F4A6F50C94E2040EF4E0950B2EBA2F52
:10078000A02D0B01B90190010C01CA01A001112497
:10079000FF27591B99F0593F50F4503E68F11A1643
:1007A000F040A22F232F342F4427585FF3CF4695D4
:1007B00037952795A795F0405395C9F77EF41F16F6
:1007C000BA0B620B730B840BBAF09150A1F0FF0FC0
:1007D000BB1F661F771F881FC2F70EC0BA0F621FAC
:1007E000731F841F48F4879577956795B795F7959C
:1007F0009E3F08F0B0CF9395880F08F09927EE0F31
:100800009795879508950E94740408F481E00895EF
:100810000E94C80488F09F5798F0B92F9927B751C4
:10082000B0F0E1F0660F771F881F991F1AF0BA9594
:10083000C9F714C0B13091F00E94E204B1E008950C
:100840000C94E204672F782F8827B85F39F0B93FFE
:10085000CCF3869577956795B395D9F73EF4909547
:100860008095709561957F4F8F4F9F4F0895E894C5
:1008700009C097FB3EF490958095709561957F4FE8
:100880008F4F9F4F9923A9F0F92F96E9BB27939596
:10089000F695879577956795B795F111F8CFFAF4A6
:1008A000BB0F11F460FF1BC06F5F7F4F8F4F9F4FD7
:1008B00016C0882311F096E911C0772321F09EE835
:1008C000872F762F05C0662371F096E8862F70E09B
:1008D00060E02AF09A95660F771F881FDAF7880F75
:1008E0009695879597F90895990F0008550FAA0BCB
:1008F000E0E8FEEF16161706E807F907C0F0121633
:100900001306E407F50798F0621B730B840B950B35
:1009100039F40A2661F0232B242B252B21F408958A
:100920000A2609F4A140A6958FEF811D811D089527
:1009300097F99F6780E870E060E008959FEF80EC92
:10094000089500240A941616170618060906089535
:1009500000240A9412161306140605060895092E9B
:100960000394000C11F4882352F0BB0F40F4BF2B0A
:1009700011F460FF04C06F5F7F4F8F4F9F4F08954A
:1009800057FD9058440F551F59F05F3F71F0479540
:10099000880F97FB991F61F09F3F79F08795089525
:1009A000121613061406551FF2CF4695F1DF08C044
:1009B000161617061806991FF1CF86957105610561
:1009C00008940895E894BB2766277727CB0197F909
:1009D000089597FB072E16F4009407D077FD09D0F1
:1009E0000E941C0507FC05D03EF4909581959F4F11
:1009F0000895709561957F4F0895052E97FB1EF41D
:100A000000940E94140557FD07D00E94300507FC92
:100A100003D04EF40C9414055095409530952195D3
:100A20003F4F4F4F5F4F089590958095709561951A
:100A30007F4F8F4F9F4F0895AA1BBB1B51E107C0EB
:100A4000AA1FBB1FA617B70710F0A61BB70B881F5E
:100A5000991F5A95A9F780959095BC01CD010895ED
:100A6000A1E21A2EAA1BBB1BFD010DC0AA1FBB1FB2
:100A7000EE1FFF1FA217B307E407F50720F0A21B24
:100A8000B30BE40BF50B661F771F881F991F1A9491
:100A900069F760957095809590959B01AC01BD01BB
:100AA000CF010895F894FFCF320001FC006000DA16
:100AB00000F2006600B600BE00E000FE00F6000096
:107800000C94343C0C94513C0C94513C0C94513CE1
:107810000C94513C0C94513C0C94513C0C94513CB4
:107820000C94513C0C94513C0C94513C0C94513CA4
:107830000C94513C0C94513C0C94513C0C94513C94
:107840000C94513C0C94513C0C94513C0C94513C84
:107850000C94513C0C94513C0C94513C0C94513C74
:107860000C94513C0C94513C11241FBECFEFD8E036
:10787000DEBFCDBF11E0A0E0B1E0ECE9FFE702C060
:1078800005900D92A230B107D9F712E0A2E0B1E065
:1078900001C01D92AD30B107E1F70E942D3D0C945F
:1078A000CC3F0C94003C982F959595959595959582
:1078B000905D8F708A307CF0282F295A8091C0000B
:1078C00085FFFCCF9093C6008091C00085FFFCCF60
:1078D0002093C6000895282F205DF0CF982F809127
:1078E000C00085FFFCCF9093C6000895EF92FF92F1
:1078F0000F931F93EE24FF2487018091C00087FD22
:1079000017C00894E11CF11C011D111D81E4E8164B
:1079100082E4F8068FE0080780E0180770F3E09132
:107920000401F091050109958091C00087FFE9CF1E
:107930008091C6001F910F91FF90EF9008950E94D3
:10794000763C982F8091C00085FFFCCF9093C600B5
:1079500091362CF490330CF09053892F089597555D
:10796000892F08951F930E949F3C182F0E949F3CCF
:107970001295107F810F1F9108951F93182F882350
:1079800021F00E94763C1150E1F71F9108951F935A
:10799000182F0E94763C803249F0809103018F5F5E
:1079A000809303018530C1F01F9108958091C0003C
:1079B00085FFFCCF84E18093C6008091C00085FFE5
:1079C000FCCF1093C6008091C00085FFFCCF80E102
:1079D0008093C6001F910895E0910401F091050184
:1079E00009951F9108950E94763C803241F0809164
:1079F00003018F5F80930301853081F008958091AA
:107A0000C00085FFFCCF84E18093C6008091C00058
:107A100085FFFCCF80E18093C6000895E0910401CA
:107A2000F09105010995089540E951E08823A1F0FE
:107A30002D9A28EE33E0FA013197F1F721503040CA
:107A4000D1F72D9828EE33E0FA013197F1F7215064
:107A50003040D1F7815061F708953F924F925F9285
:107A60006F927F928F929F92AF92BF92CF92DF924E
:107A7000EF92FF920F931F93CF93DF93000080E16B
:107A80008093C4001092C50088E18093C10086E015
:107A90008093C2005098589A259A81E00E94143D24
:107AA00024E1F22E9EE1E92E85E9D82E0FE0C02ECA
:107AB00010E1B12EAA24A394B1E49B2EA6E58A2E50
:107AC000F2E57F2EE0E26E2E79E4572E63E5462E36
:107AD00050E5352E0E94763C8033B1F18133B9F107
:107AE000803409F46FC0813409F476C0823409F41B
:107AF00085C0853409F488C0803531F1823521F1A3
:107B0000813511F1853509F485C0863509F48DC0BC
:107B1000843609F496C0843709F403C1853709F423
:107B200072C1863709F466C0809103018F5F80932C
:107B30000301853079F6E0910401F0910501099582
:107B40000E94763C803351F60E94F33CC3CF0E94E2
:107B5000763C803249F78091C00085FFFCCFF092DF
:107B6000C6008091C00085FFFCCF9092C600809136
:107B7000C00085FFFCCF8092C6008091C00085FFC9
:107B8000FCCF7092C6008091C00085FFFCCF609250
:107B9000C6008091C00085FFFCCF5092C600809146
:107BA000C00085FFFCCF4092C6008091C00085FFD9
:107BB000FCCF3092C6008091C00085FFFCCFB09210
:107BC000C60088CF0E94763C863808F4BDCF0E945C
:107BD000763C0E94F33C7ECF0E94763C803809F4CC
:107BE0009CC0813809F40BC1823809F43CC1883942
:107BF00009F48FC080E00E94C73C6CCF84E10E94F2
:107C0000BD3C0E94F33C66CF85E00E94BD3C0E94D3
:107C1000F33C60CF0E94763C809306010E94763C44
:107C2000809307010E94F33C55CF0E94763C80333D
:107C300009F41DC183E00E94BD3C80E00E94C73C66
:107C400049CF0E94763C809309020E94763C809343
:107C5000080280910C028E7F80930C020E94763C79
:107C6000853409F415C18091080290910902892B8D
:107C700089F000E010E00E94763CF801E85FFE4FDA
:107C800080830F5F1F4F80910802909109020817AF
:107C9000190788F30E94763C803209F045CF809125
:107CA0000C0280FF01C16091060170910701660F0F
:107CB000771F7093070160930601A0910802B091AD
:107CC00009021097C9F0E8E0F1E09B01AD014E0F09
:107CD0005F1FF999FECF32BD21BD819180BDFA9A17
:107CE000F99A2F5F3F4FE417F50799F76A0F7B1F4B
:107CF00070930701609306018091C00085FFFCCF5F
:107D0000F092C6008091C00085FFFCCFB092C60003
:107D1000E1CE83E00E94C73CDDCE82E00E94C73CFA
:107D2000D9CE0E94763C809309020E94763C8093D3
:107D300008028091060190910701880F991F909386
:107D40000701809306010E94763C853409F4A6C0A1
:107D500080910C028E7F80930C020E94763C8032D0
:107D600009F0B8CE8091C00085FFFCCFF092C6002C
:107D7000609108027091090261157105B9F140E046
:107D800050E080910C02A82FA170B82FB27011C0E2
:107D9000BB2309F45CC0E0910601F0910701319624
:107DA000F0930701E09306014F5F5F4F46175707B7
:107DB000E8F4AA2369F3F999FECF209106013091E6
:107DC000070132BD21BDF89A90B58091C00085FFB2
:107DD000FCCF9093C6002F5F3F4F30930701209355
:107DE00006014F5F5F4F4617570718F38091C00099
:107DF00085FDE5CE8091C00085FFF8CFE0CE81E023
:107E00000E94C73C67CE0E94763C803209F08CCE3F
:107E10008091C00085FFFCCFF092C6008091C00029
:107E200085FFFCCFE092C6008091C00085FFFCCFAB
:107E3000D092C6008091C00085FFFCCFC092C600E2
:107E40008091C00085FFFCCFB092C60043CEE09188
:107E50000601F091070194918091C00085FFFCCF4D
:107E60009093C6009CCF80E10E94C73C33CE0E9415
:107E7000763C0E94763C182F0E94763C112309F430
:107E800083C0113009F484C08FE00E94C73C22CE29
:107E900080910C02816080930C02E5CE80910C02EF
:107EA000816080930C0259CF809107018823880F4D
:107EB000880B8A2180930B02809106019091070123
:107EC000880F991F90930701809306018091080203
:107ED00080FF09C080910802909109020196909359
:107EE000090280930802F894F999FECF1127E091D6
:107EF0000601F0910701C8E0D1E08091080290915D
:107F00000902103091F40091570001700130D9F34B
:107F100003E000935700E89500915700017001308D
:107F2000D9F301E100935700E89509901990009169
:107F3000570001700130D9F301E000935700E89534
:107F40001395103498F011270091570001700130FB
:107F5000D9F305E000935700E895009157000170B0
:107F60000130D9F301E100935700E895329602976A
:107F700009F0C7CF103011F00296E5CF112480919F
:107F8000C00085FFB9CEBCCE8EE10E94C73CA2CD19
:0E7F900085E90E94C73C9ECDF894FFCF80008B
:00000001FF
